:020000040800F2
:1000000080060020F902000801030008030300082D
:1000100000000000000000000000000000000000E0
:1000200000000000000000000000000005030008C0
:10003000000000000000000007030008090300089A
:100040000B0300080B0300080B0300080B03000858
:100050000B0300080B0300080B0300080B03000848
:100060000B0300080B0300080B0300080B03000838
:100070000B0300080B0300080B0300080B03000828
:100080005702000829020008000000000B030008C6
:100090000B0300080B0300080B0300080B03000808
:1000A0000B0300080B0300080B0300080B030008F8
:1000B0000B030008000000000B0300080000000014
:1000C00000F002F800F03EF80CA030C80838241800
:1000D0002D18A246671EAB4654465D46AC4201D180
:1000E00000F030F87E460F3E0FCCB6460126334274
:1000F00000D0FB1AA246AB4633431847F405000074
:1001000014060000103A02D378C878C1FAD8520712
:1001100001D330C830C101D504680C6070470000BD
:100120000023002400250026103A01D378C1FBD813
:10013000520700D330C100D50B6070471FB51FBDFB
:1001400010B510BD00F0A0FA1146FFF7F7FF00F060
:1001500099F800F0B8FA03B4FFF7F2FF03BC00F01F
:10016000BFFA000008B55949098A0F22120311404D
:10017000491C88B2009004E069460988491E8AB289
:100180000092694609880029F6DC08BD504840699C
:100190000321490408434E4948614C4800684D49D1
:1001A00008434A490860084600680002000A0860DF
:1001B000704710B54648C069102108434449C861DA
:1001C0004548464908814648006844492039C86284
:1001D000084680890121084340492039888111203F
:1001E00000F06CF83F4800680121490408433D498C
:1001F000086010BD10B53648C06902210843344973
:10020000C86135483849088138480068364920397E
:10021000C862084680890121084333492039888112
:10022000102000F04BF810BD314800780121484003
:100230002F49087008460078002803D02020234961
:10024000886103E00120400520498861002023499E
:100250002039088270472748007801214840254905
:10026000087008460078002803D08020174988616C
:1002700003E00120C0051549886100201A49203992
:100280000882704772B6FFF781FFFFF792FFFFF712
:10029000B1FF62B6114820380088012108430F4998
:1002A00020390880104820380088012108430E4971
:1002B0002039088000BFFEE700BFFEE7C206D20E6D
:1002C00001219140074A1160704700000004004876
:1002D00000100240555501003F1F00002010004053
:1002E0000400002000E100E020040040080000209D
:1002F0000000002001000020074880470748004711
:10030000FEE7FEE7FEE7FEE7FEE7FEE704480549F5
:10031000054A064B70470000FF030008C1000008B3
:100320008000002080060020800200208002002043
:100330000CB5002001900090734800680121090469
:1003400008437149086000BF6F48006801214904F3
:10035000084000900198401C01900098002804D1AA
:100360000521090301988842EED167480068012100
:1003700049040840002802D00120009001E000203C
:1003800000900098012839D11120604908605E482A
:1003900040685D49486008464068486008464068D3
:1003A0007F21C903884358494860084640681121A5
:1003B00009040843544948600846006801210906B9
:1003C00008435149086000BF4F48006801214906B1
:1003D00008400028F8D04C484068800880004A490E
:1003E000486008464068022108434749486000BF0A
:1003F000454840680C2108400828F9D10CBD10B5CB
:1004000041480068012108433F49086008464068A8
:100410003F4908403C494860084600683D4908405B
:100420003949086008460068012189048843364933
:100430000860084640683F21090488433249486003
:100440000846C06A00090001C8620846006BFF2127
:10045000543188432C4908630846406B40084000EB
:10046000486300208860FFF763FF10BDF8B50025E2
:10047000002400260027244840680C210840054637
:10048000002D04D0042D06D0082D2AD107E02248E3
:100490002249086029E020482049086025E01A48E0
:1004A00040680F218904084004461748406803212A
:1004B000C90308400646A00C841C002E04D118482D
:1004C0006043164908600BE00F48C06A0007000F40
:1004D000471C3946104800F027F860430F49086070
:1004E00003E00D480D49086000BF00BF06484068A2
:1004F000F021084000090B490D5C08480068E840FD
:1005000006490860F8BD00000010024000200240CB
:100510000CB8FF08FFFFF6FE00127A000C00002066
:1005200000093D0010000020002203098B422CD35B
:10053000030A8B4211D300239C464EE003460B4333
:100540003CD4002243088B4231D303098B421CD395
:10055000030A8B4201D394463FE0C3098B4201D387
:10056000CB01C01A524183098B4201D38B01C01ABF
:10057000524143098B4201D34B01C01A5241030936
:100580008B4201D30B01C01A5241C3088B4201D3E5
:10059000CB00C01A524183088B4201D38B00C01A92
:1005A000524143088B4201D34B00C01A5241411AB9
:1005B00000D201465241104670475DE0CA0F00D09C
:1005C0004942031000D34042534000229C46030995
:1005D0008B422DD3030A8B4212D3FC22890112BA1B
:1005E000030A8B420CD3890192118B4208D38901F3
:1005F00092118B4204D389013AD0921100E089090B
:10060000C3098B4201D3CB01C01A524183098B42EB
:1006100001D38B01C01A524143098B4201D34B01D4
:10062000C01A524103098B4201D30B01C01A524137
:10063000C3088B4201D3CB00C01A524183088B42BE
:1006400001D38B00C01A5241D9D243088B4201D347
:100650004B00C01A5241411A00D201466346524132
:100660005B10104601D34042002B00D54942704731
:1006700063465B1000D3404201B50020C046C0462F
:1006800002BD704770477047754600F025F8AE46CA
:10069000050069465346C008C000854618B020B51D
:1006A000FFF734FE60BC00274908B6460026C0C5E7
:1006B000C0C5C0C5C0C5C0C5C0C5C0C5C0C5403D1A
:1006C00049008D46704710B50446C046C0462046D6
:1006D000FFF741FD10BD00000048704720000020DA
:1006E00001491820ABBEFEE726000200704700005B
:1006F000100700080000002020000000040100088E
:1007000030070008200000206006000020010008DB
:1007100000000000A70000003F000000006CDC02A9
:1007200000000000000000000102030406070809A1
:04000005080000C12E
:00000001FF
