:020000040800F2
:100000007806002091030008990300089B0300086C
:1000100000000000000000000000000000000000E0
:100020000000000000000000000000009D03000828
:1000300000000000000000009F030008A10300086A
:10004000A3030008A3030008A3030008A3030008F8
:10005000A3030008A3030008A3030008A3030008E8
:10006000A3030008A3030008A3030008A3030008D8
:10007000A3030008A3030008A3030008A3030008C8
:10008000A3030008A303000800000000A303000866
:10009000A3030008A3030008A3030008A3030008A8
:1000A000A3030008A3030008A3030008A303000898
:1000B000A303000800000000A303000800000000E4
:1000C00000F002F800F050F80CA030C808382418EE
:1000D0002D18A246671EAB4654465D46AC4201D180
:1000E00000F042F87E460F3E0FCCB6460126334262
:1000F00000D0FB1AA246AB46334318472009000044
:1001000040090000103A02D378C878C1FAD85207E3
:1001100001D330C830C101D504680C6070470000BD
:100120000023002400250026103A01D378C1FBD813
:10013000520700D330C100D50B60704710B5642959
:1001400002D100F0B1FA10BD632902D100F012FC17
:1001500010BD732902D100F015FC10BD002010BDA8
:100160001FB51FBD10B510BD00F024FC1146FFF7F0
:10017000F7FF00F084F800F03CFC03B4FFF7F2FF57
:1001800003BC00F043FC00000BE000BF6B49C969F1
:10019000802211400029F9D00178684A203211816B
:1001A000401C01780029F0D1704710B59AB00024A6
:1001B00015E00921C906898A0122A24011400029BF
:1001C00001D05FA100E05FA10B460A21614301AAB3
:1001D0008818621C5CA100F0F3F9601CC4B2082C02
:1001E000E7DB01A8FFF7D0FF1AB010BD002905D04A
:1001F000012282400923DB069A6103E0012282404A
:10020000554B1A81704770B504460D461646534843
:100210008069012189030843504988610846406983
:100220000121490408434D4948610920C00600687E
:100230000521C90408430921C90608600846406A27
:10024000FF21113108430921C9064862214644486B
:10025000006800F05FFA394988810D20086008467F
:100260000068284308600846406803210903884362
:1002700032494860084640683043486070BD8EB0DF
:100280000322120301218902E1200002FFF7BBFFD4
:100290003248406901214904084330494861092036
:1002A000C00600682F4908430921C906086043E0D9
:1002B00000BF2248C069202108400028F9D01F480B
:1002C00020308088C4B2312C28DB382C26DC204634
:1002D0003138C5B20920C006808A0121A9400840F2
:1002E000002801D0012000E000200646002E01D1A8
:1002F000012000E0002001462846FFF777FF002E8E
:1003000001D010A000E00EA00346224616A101A8CD
:1003100000F056F901A8FFF737FF0DE0302C07D1A8
:1003200000200921C906888213A0FFF72DFF03E0F2
:10033000392C01D1FFF739FFBAE70000003801403E
:100340004F4E00004F4646004C45442025643A205D
:1003500025730D0A00000000200000480010024034
:1003600000000020555500004C45442025633A20EC
:1003700025730D0A00000000416C6C204C4544734D
:10038000207475726E6564204F46460D0A000000A9
:100390000748804707480047FEE7FEE7FEE7FEE71D
:1003A000FEE7FEE704480549054A064B7047000092
:1003B00097040008C100000878000020780600209B
:1003C00078020020780200200CB5002001900090F7
:1003D000734800680121090408437149086000BF9F
:1003E0006F48006801214904084000900198401CB2
:1003F00001900098002804D1052109030198884242
:10040000EED167480068012149040840002802D065
:100410000120009001E0002000900098012839D1CF
:100420001120604908605E4840685D4948600846A0
:1004300040684860084640687F21C903884358499E
:10044000486008464068112109040843544948603F
:10045000084600680121090608435149086000BFA9
:100460004F4800680121490608400028F8D04C4850
:100470004068800880004A49486008464068022178
:1004800008434749486000BF454840680C21084080
:100490000828F9D10CBD10B5414800680121084376
:1004A0003F490860084640683F4908403C49486069
:1004B000084600683D490840394908600846006818
:1004C00001218904884336490860084640683F2175
:1004D00009048843324948600846C06A000900019F
:1004E000C8620846006BFF21543188432C490863D9
:1004F0000846406B40084000486300208860FFF7D2
:1005000063FF10BDF8B5002500240026002724480D
:1005100040680C2108400546002D04D0042D06D06B
:10052000082D2AD107E022482249086029E0204806
:100530002049086025E01A4840680F2189040840D6
:100540000446174840680321C90308400646A00C2A
:10055000841C002E04D118486043164908600BE043
:100560000F48C06A0007000F471C3946104800F0CA
:10057000D1F860430F49086003E00D480D49086059
:1005800000BF00BF06484068F021084000090B4941
:100590000D5C08480068E84006490860F8BD0000A6
:1005A00000100240002002400CB8FF08FFFFF6FEDA
:1005B00000127A000000002000093D000400002025
:1005C0000FB41CB5074B06AA7B44694600900598FA
:1005D00000F0ADF90020694600F0BCF91CBC08BC75
:1005E00004B0184789030000F8B50E460446002001
:1005F00020622046E1688847002829D0252802D0BB
:100600006268A16820E0E16820460027884705006D
:100610001ED028464138192802D80127FF0220356C
:100620003246204627602946FFF788FD002808D07B
:10063000012804D0F61DF608F6000836D9E7361D65
:10064000D7E762682846A1689047206A401CCFE738
:10065000206AF8BD70B50C460546012A05D02878F9
:10066000800600D5EA69002302E0012305E05B1C57
:10067000934202D2E05C0028F9D1A869E618C01ABA
:10068000A861286AC01828622846C046C04604E00F
:100690006A682078A968641C9047B442F8D3284659
:1006A000C046C04670BD0000F7B50025752910682A
:1006B000009914A611D0C046C046002802DA404274
:1006C00011A608E0009909688A0701D50FA602E083
:1006D000490704D50EA6012501E0C046C046009F8B
:1006E0000024243704E000F051F930313955641CFE
:1006F0000028F8D12B4632462146009800F0BAF87F
:10070000FEBD0000000000002D0000002B000000D6
:1007100020000000002203098B422CD3030A8B42E5
:1007200011D300239C464EE003460B433CD40022E9
:1007300043088B4231D303098B421CD3030A8B42FB
:1007400001D394463FE0C3098B4201D3CB01C01AC9
:10075000524183098B4201D38B01C01A5241430994
:100760008B4201D34B01C01A524103098B4201D382
:100770000B01C01A5241C3088B4201D3CB00C01AEF
:10078000524183088B4201D38B00C01A5241430867
:100790008B4201D34B00C01A5241411A00D201468C
:1007A0005241104670475DE0CA0F00D04942031025
:1007B00000D34042534000229C4603098B422DD374
:1007C000030A8B4212D3FC22890112BA030A8B421C
:1007D0000CD3890192118B4208D3890192118B426B
:1007E00004D389013AD0921100E08909C3098B42F0
:1007F00001D3CB01C01A524183098B4201D38B0133
:10080000C01A524143098B4201D34B01C01A5241D5
:1008100003098B4201D30B01C01A5241C3088B421A
:1008200001D3CB00C01A524183088B4201D38B0005
:10083000C01A5241D9D243088B4201D34B00C01A8F
:100840005241411A00D20146634652415B101046A4
:1008500001D34042002B00D54942704763465B10EC
:1008600000D3404201B50020C046C04602BD7047DB
:1008700070477047FFB504460D4681B024300090A4
:100880002168880604D51022E0699143216000E0C8
:100890000120A84201DD471B00E000270498A16960
:1008A0007A191018081AA0612078C00602D42046D0
:1008B000C046C046002608E003986268A168805DD3
:1008C0009047206A401C761C206204988642F3DB25
:1008D0002078C0060AD52046C046C04606E06268B9
:1008E000A16830209047206A401C206238467F1E55
:1008F0000028F4DC07E000986268A168405D90473A
:10090000206A401C206228466D1E0028F3DC204629
:10091000C046C0462078000602D5022005B0F0BDD2
:100920000120FBE701694A1C02610878704700B5A5
:100930008FB00291002105910549019379440391FB
:10094000114604906846FFF74FFE0FB000BD00004F
:10095000E5FFFFFF0A681070521C0A60704710B56F
:100960004369002B02D0C046C04601E0FFF772FE8B
:10097000012010BD1278014624310A7000224A700D
:100980000122ECE711680022D243E8E70146800823
:10099000081A02091018020A1018020C1018C008D0
:1009A000820012185200891A01E0401C0A390A29F3
:1009B000FBD27047754600F025F8AE460500694643
:1009C0005346C008C000854618B020B5FFF7EAFCC2
:1009D00060BC00274908B6460026C0C5C0C5C0C5D2
:1009E000C0C5C0C5C0C5C0C5C0C5403D49008D46D5
:1009F000704710B50446C046C0462046FFF7BDFB11
:100A000010BD000000487047140000200149182064
:100A1000ABBEFEE726000200704700003C0A00085B
:100A2000000000201400000004010008500A000823
:100A3000140000206406000020010008006CDC02A5
:100A4000000000000000000001020304060708097E
:04000005080000C12E
:00000001FF
